:1040000030C00020E1420000DD420000DD4200003F
:10401000DD420000DD420000DD4200000000000043
:10402000000000000000000000000000DD42000071
:10403000DD42000000000000DD420000DD42000023
:10404000DD420000DD420000DD420000DD420000F4
:10405000DD420000DD420000DD420000DD420000E4
:10406000DD420000DD420000DD420000DD420000D4
:10407000DD420000DD420000DD420000DD420000C4
:10408000DD420000DD420000DD420000DD420000B4
:10409000DD420000DD420000DD420000DD420000A4
:1040A000DD420000DD420000DD420000DD42000094
:1040B000DD420000DD420000DD420000DD42000084
:1040C000DD420000DD420000DD420000DD42000074
:1040D000DD420000DD420000DD420000DD42000064
:1040E000DD420000DD420000000000000000000092
:1040F00000000000A1450000DD420000DD4200009C
:10410000DD420000DD420000DD420000DD42000033
:10411000DD420000DD420000DD420000DD42000023
:10412000DD420000DD420000DD420000DD42000013
:10413000DD420000DD420000DD420000DD42000003
:10414000DD420000DD420000DD420000DD420000F3
:10415000DD420000DD420000000000000000000021
:10416000000000000000000000000000000000004F
:10417000000000000000000000000000000000003F
:10418000DD420000DD420000DD420000DD420000B3
:1041900000000000DD420000DD420000DD420000C2
:1041A000DD420000DD420000DD420000DD42000093
:1041B000DD420000DD420000DD420000DD42000083
:1041C000DD420000DD420000DD420000DD42000073
:1041D000DD420000DD420000DD420000DD42000063
:1041E000DD420000DD420000DD420000DD42000053
:1041F000DD420000DD420000DD420000DD42000043
:10420000DD4200000000000000000000DD42000070
:10421000DD420000DD420000DD420000DD42000022
:10422000DD420000DD420000DD420000DD42000012
:10423000DD420000DD420000DD420000DD42000002
:10424000DD420000DD420000DD420000DD420000F2
:10425000DD420000DD420000DD420000DD420000E2
:104260000000000010B5054C237833B9044B13B19E
:104270000448AFF300800123237010BD000000202C
:1042800000000000FC4600000C4B43B10C480D49F7
:1042900010B5AFF300800C48036823B910BD0A487D
:1042A000036833B97047094B002BF7D0BDE81040C5
:1042B0001847064B002BF5D0184700BF0000000040
:1042C000FC46000004000020FC4600000000000046
:1042D00008B5014B984708BD8D430000FEE700007C
:1042E00008B51C4B1C4A9A4210D01C4B194A9A42E2
:1042F0000CD2013B9B1A23F00303043313441649E9
:1043000051F8040B42F8040B9A42F9D1144B154AA8
:104310009A420AD2013B9B1A23F00303043313444D
:10432000002142F8041B9342FBD10F4B0F4A22F0AD
:104330007F029A60D3F8882042F47002C3F8882084
:10434000BFF34F8FBFF36F8F094B9847094B9847C7
:10435000FEE700BF00000020FC4600000000002037
:10436000300000200000002000ED00E000400000D0
:10437000954600005546000008B50248024B984794
:1043800008BD00BF10E000E0C943000008B50A4BBB
:1043900098470A4B4FF400025A619A604FF08042EE
:1043A0009A62074A9A6293F8572002F0FE0283F855
:1043B0005720044B984708BD094400000080004185
:1043C000800000C07943000008B5024B1860024B22
:1043D000984708BD1C000020E545000010B5044BBF
:1043E0001C68044B984701462046034B984710BD74
:1043F0001C000020FD430000F94500004BF680330F
:1044000003FB00F07047000010B5094A13889BB207
:104410001380084B9847084B9847084B984708204B
:10442000074CA047074B984740F6F770A04710BDD0
:104430000040004195440000B5440000894400005C
:1044400049440000B944000010F0010F08D00B4AA5
:104450000B4B1A62194643F6FD724B681342FCD1AE
:1044600010F0080F08D0074A054BDA62194643F6E8
:10447000FD724B681342FCD1704700BF060101007A
:10448000001C0040050101000122014B5A717047D8
:1044900000080040064B42F286029A8200229A757A
:1044A000DA75DA6902F47C52DA6101221A74704713
:1044B0000014004070470000364A136A23F00F03CF
:1044C00043F004031362114643F6FD724B68134236
:1044D000FCD1304A536813F0040FFBD12E4B00225D
:1044E0001A772E4A9A621A4692F82C3013F0100F5F
:1044F000FAD10022284B83F820201A4692F82C305B
:1045000013F0040FFAD10222234B1A771A4692F8BD
:104510002C3013F0020FFAD11F4B5A6A5A621A4616
:1045200092F82C3013F0080FFAD180221A4B83F83E
:1045300020201A4692F82C3013F0040FFAD1164BB3
:1045400093F8203013F0010F1DD0134A136903F4C0
:104550001063B3F5106FF9D10E4A5368002BFCD1EC
:104560000C4A136A23F00F0343F00603136211464B
:1045700043F6FD724B681342FCD1064A536813F0B0
:10458000040FFBD17047044A136913F4807FFBD0FA
:10459000E2E700BF001C00400010004000000104E2
:1045A00000B583B00D4B9B78DBB20193019B13F0F8
:1045B000020F06D00A4B1B681BB1084A5068984787
:1045C00009E0019B13F0010F05D0054B5B6813B1A7
:1045D000024A5068984703B05DF804FB00000241AE
:1045E00020000020034B6FF07F425A6005221A60C2
:1045F000704700BF10E000E00B0E03B330B45D1E47
:10460000EDB22846124A6FF07F44546094601368FC
:1046100013F4803FFBD00138C0B2FF28F5D1A5EBE1
:10462000056501F17F4101312944094B59609960C9
:104630001A46136813F4803FFBD030BC7047044B1C
:10464000596099601A46136813F4803FFBD0704795
:1046500010E000E0F8B50C4B98474FF400020B4B0C
:104660009A610124C8270A4E1D4603E04FF4000357
:104670006B6100243846B047002CF7D14FF400039B
:10468000AB610124F6E700BFD14200000080004189
:10469000DD43000070B50D4E0D4CA41BA410002589
:1046A000A54209D10B4E0C4C00F018F8A41BA41025
:1046B0000025A54205D170BD56F825309847013533
:1046C000EEE756F8253098470135F2E7E846000056
:1046D000E8460000E8460000EC460000F8B500BFE0
:1046E000F8BC08BC9E46704789420000F8B500BF80
:0C46F000F8BC08BC9E4670476542000004
:0400000300004000B9
:00000001FF
